S018000073696D706C655F627574746F6E5F7472792E73333799
S11300000010002015060000F34C0000F34C000023
S1130010F34C0000F34C0000F34C0000F34C0000E0
S1130020F34C0000F34C0000F34C000031020000DC
S1130030F34C0000F34C0000C101000081510000AA
S1130040F34C0000F34C0000F34C0000F34C0000B0
S1130050F34C0000F34C0000F34C0000F34C0000A0
S1130060F34C0000F34C0000F34C0000F34C000090
S113007029320000F34C0000F34C0000F34C000064
S1130080F34C0000F34C0000F34C0000F34C000070
S1130090F34C0000790B0000F34C0000F34C00001B
S11300A0F34C0000F50C0000D10C0000F34C0000F0
S11300B0F34C0000F34C0000F34C0000F34C000040
S11300C0F34C0000F34C0000F34C0000F34C000030
S11300D0F34C0000F34C0000F34C0000F34C000020
S11300E0F34C0000F34C0000F34C0000F34C000010
S11300F0534F0000F34C0000F34C0000F34C00009D
S11301002D330000F34C0000F34C0000F34C0000CE
S1130110F34C0000F34C0000F34C0000F34C0000DF
S1130120F34C0000F34C0000F34C0000F34C0000CF
S1130130F34C0000F34C0000F34C0000F34C0000BF
S1130140013800D0FCE77047000000000000000008
S11301500B4A1168086806C881F30B88022181F3F1
S11301601488203080F30988BFF36F8F4FF00000AC
S113017080F31188104700BFAFF30080AFF3008015
S1130180181B002000000000000000000000000018
S113019007480068006880F3088862B661B6BFF358
S11301A04F8FBFF36F8F02DF00BF00BFAFF300803C
S11301B008ED00E000000000000000000000000066
S11301C0EFF309801EF0100F08BF20ED108AEFF343
S11301D00B82734620E9FC0F114A116808604FF046
S11301E0300080F31188BFF34F8FBFF36F8F03F09C
S11301F0F9FD4FF0000080F31188094A116808687E
S1130200B0E8FC0F13F0100F08BFB0EC108A82F3B3
S11302100B8880F309881847AFF30080AFF30080A0
S1130220181B002000000000000000000000000077
S11302301EF0040F0CBFEFF30880EFF309800449AC
S1130240084700BFAFF30080AFF30080AFF3008036
S11302504945000010B5054C237833B9044B13B15C
S1130260044800E000BF0123237010BDF4100020F7
S113027000000000F45B000008B5034B1BB1034908
S1130280034800E000BF08BD00000000F810002093
S1130290F45B0000A3F5803A704700BF174B002BB6
S11302A008BF134B9D46FFF7F5FF00218B460F4611
S11302B01348144A121A05F0F7F80E4B002B00D01D
S11302C098470D4B002B00D09847002000210400D4
S11302D00D000D48002802D00C4800E000BF04F0D7
S11302E0A1FC2000290004F0C5FC04F087FC00BF39
S11302F000000800000000000000000000100020C2
S1130300F4100020A82100200000000000000000DC
S113031010B5044604F0FFFC012807D1044B9C42AD
S113032004D1BDE81040034804F05EBD10BD00BF19
S1130330E0540000F8540000034B1A6890420CBFCC
S113034018460020704700BF0010002010B5234C51
S113035001F06CF801F058FA236F23F0070343F01F
S11303600303236704F079FD1D4B00209B6A9B0760
S11303705EBF01221B4B9A62D4F8203123F00303A1
S113038043F00203C4F82031D4F8243123F00703E6
S113039043F00203C4F82431D4F8403123F00303BA
S11303A043F00203C4F84031D4F8603123F003036E
S11303B043F00203C4F86031D4F8403223F003035D
S11303C043F00203C4F84032D4F8003223F00703A8
S11303D043F00203C4F8003210BD00BF0080005097
S11303E000C0005000E0005008B5164B1B68C3F372
S11303F00743012B0ED1144B04205A6E4FF4802373
S11304001249520358BF124A4B6601F51041086263
S113041058BF536601F0D0FF04F067FC01F05EFFA3
S113042004F095FD01F07CFF01F0B0FFFFF78EFFB3
S113043001F064FF04F04EFC02F090FFBDE80840B8
S113044002F04AB90080E00F008000500090005094
S113045000A000504FF47A7307B500930023694657
S113046003488DF8043000F0E7FA03B05DF804FBAC
S113047034100020014804F049BC00BFE0540000DF
S1130480014804F0AEBC00BFF8540000082808B5C9
S113049016D00DDC022803DC002811DCEB2102E07D
S11304A00428FBD1C2210F4804F02CFC0E2013E0D9
S11304B020280AD0402810D01028EFD1D421F2E708
S11304C0042200231146184603E0042200231146A7
S11304D0012001F05FFC002008BD0023042219461E
S11304E0F1E700BF105500000822014B1A6770475E
S11304F000D003500822014B1A67704700E00350F4
S1130500F0B5404D89B001AC0FCD0FC495E807009C
S113051084E80700012401213A2000F0CFFD3A4F7E
S11305200121282000F0CAFD384B384601A9039365
S11305308DF8124001F064FE2346042200210220BB
S113054001F028FC224621460023022001F022FC6F
S1130550022123460846042201F01CFC0422032144
S11305602346022001F016FC4FF00213284D022608
S1130570C5F83036A3F58033C5F82C361C23C5F8EE
S113058034664FF44870C5F81C3602F067FE142038
S1130590FFF7B0FF02F062FE2320FFF7A5FF02F091
S11305A05DFEB9213846FFF7A5FF04F0C6FCFFF74E
S11305B09BFF002330461A46194601F0EBFB00234B
S11305C021461A46304601F0E5FB234631463046C3
S11305D0002201F0DFFB234600220321304601F014
S11305E0D9FB384601F0D0FD00212820C5F830168B
S11305F0C5F82C16C5F83416C5F81C1600F05EFDB7
S113060009B0F0BD5055000000C0055000127A003A
S113061000C0035008B500F02DF8124B12498B426C
S113062012D30020114B12498B4218D3FFF736FE28
S1130630186850F82240586840F8224001329868FF
S11306408242F5D30C33EAE70022F8E71C6844F849
S1130650220001325C68A242F8D30833E4E70022A6
S1130660F8E700BFFC5B0000085C0000085C0000C9
S1130670085C00004FF400414FF0FF30124B134A66
S113068010B59A60D3F8882042F47002C3F8882029
S11306900F4A916601F1884101F5005210664FF648
S11306A0DF7050660220C3F8D000BFF34F8FBFF352
S11306B06F8F08244FF440330648C0F88041D3605C
S11306C004600B6110BD00BF00ED00E000000000FD
S11306D00090005000E100E0014B1868704700BF33
S11306E040100020084B1B6F03F00703022B04D0BB
S11306F0032B05D0012B05D0FEE7044B1868704787
S1130700034BFBE703487047008000504010002073
S113071044100020002D310108B5FFF7E3FF054B1D
S11307201B6FC3F303330133B0FBF3F0024B1860C8
S113073008BD00BF008000503C10002000487047F6
S113074000B4C404014B1868704700BF4410002073
S1130750054B1860054B1B6F03F00703032B01D1F6
S1130760FFF7DABF704700BF44100020008000503C
S113077000487047002D3101014B1868704700BFD5
S11307804810002038B50D460446D8B101281CD0C5
S113079002281CD0032803D10F23EB40DB0704D429
S11307A040F2CF310B4804F0ADFA3022142312FB8F
S11307B0043303F1A04303F570331868E84000F0F4
S11307C0010038BD40F2FF13E7E71F23E5E7FF23ED
S11307D0E3E700BF6C55000037B504680121054606
S11307E03A2000F06BFC002301226179207901F0AA
S11307F0D1FA61792079FFF7C5FFB0FA80F35B097C
S11308002370A379022B15D100F00CFA2A460B4968
S1130810607900F031FAFF28054603D14F210848DA
S113082004F070FA0123617920792A46CDE9003376
S113083001F036FA002003B030BD00BF214D0000A6
S1130840D555000038B50D460446D8B101281CD052
S113085002281CD0032803D10F23EB40DB0704D468
S113086040F2FE310B4804F04DFA3020012142F2EF
S11308701003444304F1A04401FA05F504F570346F
S1130880E55038BD40F2FF13E7E71F23E5E7FF23F8
S1130890E3E700BF6C55000038B50D460446D8B1F7
S11308A001281CD002281CD0032803D10F23EB40BD
S11308B0DB0704D440F22D410B4804F023FA302026
S11308C0012141F21003444304F1A04401FA05F567
S11308D004F57034E55038BD40F2FF13E7E71F23F9
S11308E0E5E7FF23E3E700BF6C55000038B5047863
S11308F04578D4B1012C1BD0022C1BD0032C03D17E
S11309000F23EB40DB0704D44FF489610A4804F059
S1130910F9F930220123544343F2100204F1A044B4
S1130920AB4004F57034A35038BD40F2FF13E8E740
S11309301F23E6E7FF23E4E76C55000070B5057854
S113094004464678FDB1012D20D0022D20D0032D80
S113095003D10F21F140CB0704D44FF483610D4838
S113096004F0D0F91023302212FB053202F1A04228
S113097002F570321368F34003F00100A3780BB959
S113098080F0010070BD40F2FF11E3E71F21E1E7B1
S1130990FF21DFE76C55000008B5114B984217D0D2
S11309A00DD8A3F50043984214D003F58043984230
S11309B012D00C485B2104F0A5F9802008BD0A4B35
S11309C098420BD003F580439842F2D15220F5E7C8
S11309D02620F3E72420F1E72520EFE72720EDE7A1
S11309E000000550165600000040055008B5104B95
S11309F0984216D003F58043984215D003F58043FE
S1130A00984211D003F5804398420DD003F58043FA
S1130A10984209D007484FF4307104F073F900206C
S1130A2008BD4FF0FF30FBE74FF6FF70F8E700BF5B
S1130A30008004504A56000070B5044688B000682F
S1130A400D46FFF7A9FF0121064600F037FB0121FF
S1130A503A2000F033FB2B790422A179607901F06C
S1130A6099F90D220021684604F01EFD03238DF838
S1130A70063001238DF8053002238DF801302B79DF
S1130A806A46591E4B424B41206821798DF80A3041
S1130A9001F0FCFA2268304B9A4255D003F58043AA
S1130AA09A4253D003F580439A4251D003F58043D0
S1130AB09A424FD029482A49A3F5BD33824218BF30
S1130AC00B46A0796279217942EA004243F8212059
S1130AD0304600F01DFB2D682668B0FBF5F0451E7E
S1130AE03046FFF783FF854204D940F2A2411D48F6
S1130AF004F008F9336BDA0704D440F2A44119482E
S1130B0004F000F9F561256826792846FFF76EFFA1
S1130B102B6BDB0704D44FF44C71124804F0F2F849
S1130B20102205EB461500260DEB02003146AE6699
S1130B3004F0BAFC0123206804A98DF8103001F0F8
S1130B4045FA304608B070BD074BBAE7074BB8E723
S1130B50074BB6E7074BB4E700800450008005500C
S1130B6060C503504A56000080C50350A0C5035019
S1130B70C0C50350E0C503502DE9F843174B1F6D62
S1130B805B6D1F4000D5FEE701260025144CDFF8FD
S1130B905480DFF85490374217D02368C8F8506067
S1130BA09BB1A168284601316268A1609847637BC4
S1130BB0012B0AD148B909EB45131A7B60F34102B2
S1130BC01A731A7F60F341021A770135082D4FEA30
S1130BD0460604F11004DED1BDE8F8830000045099
S1130BE010110020002004509011002070B504461C
S1130BF001250B4E04B970BD94FAA4F0B0FA80F04C
S1130C0005FA00F306EB001224EA03045368002BF0
S1130C10F0D0117B11B191689847EBE79847E9E769
S1130C209012002008B5192000F010FE28B14FF0F2
S1130C300072074BC3F880211A601A2000F006FEE8
S1130C4028B14FF08062024BC3F880211A6008BDBE
S1130C5000E100E038B505460C4604F01AF900221C
S1130C60044B03EB05135C601A73BDE8384004F0D1
S1130C7016B900BF90120020F8B505460F46164677
S1130C8004F007F9104B05F0FC02D3F824140023F8
S1130C90EC1804F00304144321FA04FC1CF0010FC3
S1130CA007D00133042BF3D1FF2404F0F8F82046D5
S1130CB0F8BDFF2CF9D00122044B03EB0413C3E964
S1130CC001761A73F1E700BF00C0035090120020B0
S1130CD0074BD3F82404D3F8202403F50053104021
S1130CE000F0553020F05020C3F82004FFF77EBFF9
S1130CF000C00350074BD3F82404D3F8202403F591
S1130D000053104000F0AA3020F0A020C3F82004C3
S1130D10FFF76CBF00C00350044BD3F88420D20605
S1130D20FBD4D3F88400C0F3811070470040005016
S1130D3038B5124B0546D3F820310C4603F00303B3
S1130D40022B0BD0032B0DD0012B0FD1FFF7C4FCCA
S1130D50052305B1286004B1236038BDFFF7F2FC18
S1130D600323F6E7FFF704FD0223F2E7044841F208
S1130D70711103F0C7FF00231846EAE70080005012
S1130D80B4560000F7B50027114B0197D3F8804102
S1130D90064604F00304012C0D4608D0022C12D0A0
S1130DA041F2BE210B4803F0ADFF3C4604E0394656
S1130DB001A8FFF7BDFF0F240EB1019B336005B1FD
S1130DC02C6003B0F0BDFFF7D3FC0190F4E700BF43
S1130DD000800050B456000038B5194B0546D3F8CE
S1130DE024310C4603F00703013B052B20D8DFE830
S1130DF003F0030F171B0B13FFF76EFC052305B15C
S1130E00286004B1236038BDFFF766FC0623F6E7CB
S1130E10FFF798FC0323F2E7FFF794FC0423EEE7C3
S1130E20FFF7A6FC0223EAE703F064FF0723E6E7E3
S1130E30044840F6C76103F065FF00231846DEE767
S1130E4000800050B456000038B5124B0546D3F864
S1130E5040310C4603F00303022B0BD0032B0DD0BF
S1130E60012B0FD103F048FF092305B1286004B119
S1130E70236038BDFFF780FC0823F6E703F03FFF4B
S1130E800B23F2E7044841F29F1103F03BFF0023D8
S1130E901846EAE700800050B456000038B5154BF8
S1130EA00546D3F800320C4603F00703013B032B3D
S1130EB018D8DFE803F0020A0E1203F01DFF09231D
S1130EC005B1286004B1236038BDFFF755FC082341
S1130ED0F6E703F014FF0B23F2E7FFF71DFC0E23E4
S1130EE0800AEDE7044841F2743103F00BFF00235C
S1130EF01846E5E700800050B456000038B5124BA0
S1130F000546D3F840320C4603F00303022B0BD002
S1130F10032B0DD0012B0FD103F0EEFE092305B1F5
S1130F20286004B1236038BDFFF726FC0823F6E7E8
S1130F3003F0E5FE0B23F2E7044841F2073103F026
S1130F40E1FE00231846EAE700800050B456000092
S1130F5038B5124B0546D3F860310C4603F0030351
S1130F60022B0BD0032B0DD0012B0FD103F0C4FEA9
S1130F70092305B1286004B1236038BDFFF7FCFBE9
S1130F800823F6E703F0BBFE0B23F2E7044841F223
S1130F90CD1103F0B7FE00231846EAE700800050A5
S1130FA0B456000010B40F4C0B46D4F8204204F0A1
S1130FB00304012C0ED0022C10D008B100210160D2
S1130FC00BB100221A6040F6F16107485DF8044B4A
S1130FD003F098BE5DF8044BFFF7AABE5DF8044B1E
S1130FE0FFF732BF00800050B4560000B0F5207FF8
S1130FF010B534D009D8B0F5007F2AD003D898B101
S1131000B0F5C07F10D0002421E0B0F5607FFAD1A4
S1131010154BD3F88030C3F301149B0617D5032C6A
S113102015D04FF421710FE00F4B1C6F230B13F0FD
S11310300E0FC4F303340AD0032C08D0072C06D0B7
S11310400F2C04D04FF41D71084803F05BFE601CA4
S113105010BD054BD3F89040C4F30464F7E7024B8A
S11310601C6FC4F38024F2E700800050B4560000E3
S11310704FF400320E4B10B504469A660020FFF779
S1131080B5FF41F6713260430A4C0B4BA0428CBF52
S11310904FF480100020D969DA639A6822F4401270
S11310A002439A60CA0344BF0022DA6310BD00BF42
S11310B000900050005A62020000035070B54609C7
S11310C004460D460FD140F21B310D4803F01AFEC1
S11310D0334604F01F0485B103F58053012000FA60
S11310E004F41C6070BD012E05D0064B064A022E86
S11310F018BF1346EDE7054BEBE703F50053EDE7A7
S1131100B456000068800050608200506480005033
S1131110002330B5802885B00446019374D02AD8C2
S1131120002877D0A0F12004412C32D8412C30D8AB
S1131130DFE804F070737073868686867373903F5D
S1131140A6653F7373732F2F2F2F2F2F8B57737316
S113115073B0AB732F2F2F2F2F2F2F2F2F2F2F2F16
S11311602F702F707070862F2F2F2F2F2F2F2F2F30
S11311702F2F2F2F7070B0F5806F61D024D8B0F569
S1131180007F54D00BD8B0F5807F68D0B0F5C07F15
S113119040D04FF48F61424803F0B4FD37E0B0F51E
S11311A0607F44D0F5D8B0F5207F36D0B0F5407FCD
S11311B0EFD1FFF7B1FA04464FF42070FFF716FFA2
S11311C0B4FBF0F0400821E0B0F5C06F58D00DD862
S11311D0B0F5A06F39D0B0F5B06F3BD0B0F5906FDB
S11311E0D7D1002101A8FFF7F7FD10E0B0F5E06FBB
S11311F04BD0B0F5F06F4DD0B0F5D06FC9D1002110
S113120001A8FFF74BFE02E0FFF76CFA019001988A
S113121005B030BDFFF780FAF8E7FFF77DFA044622
S11312204FF42070FFF7E2FEB4FBF0F0EEE7FFF7B7
S113123059FA05462046FFF7D9FEB5FBF0F0E5E77D
S1131240002101A8FFF774FDE1E7002101A8FFF7E1
S1131250A9FEDCE7002101A8FFF794FDD7E702937C
S11312604FF0E0231B695B0705D5FFF755FA0290A1
S1131270029B0193CBE703A902A8FFF7E5FDF7E77B
S1131280002101A8FFF7E0FDC1E7002101A8FFF755
S113129035FEBCE7002101A8FFF75AFEB7E700BFFF
S11312A0B456000008B58020FFF732FF034B984284
S11312B09EBF4FF48032024B1A6708BD005A620287
S11312C000A000501FB50023B0F5807F01937FD0AC
S11312D027D8382800F09C800BD82438092810D847
S11312E009280ED8DFE800F06F6F6F6F0D0D670DE2
S11312F03685522867D007D83D283AD03E2800F0DA
S11313008C8040F2595152E08028FAD1454B1B6F32
S113131003F00703013B032B47D8DFE803F0444104
S11313203F75B0F5D06F64D019D8B0F5A06F6FD009
S11313300AD8B0F5806F46D0B0F5906FE1D10020A7
S113134001A9FFF749FD3AE0B0F5B06F33D0B0F52D
S1131350C06FD6D1002001A9FFF776FD2FE0B0F5CC
S1131360006FECD00AD8B0F5E06F56D0B0F5F06F4E
S1131370C7D1002001A9FFF7EBFD20E0B0F5086F0D
S1131380BFD1284BD3F8003103F00303022B35D02F
S1131390032B37D0012B39D1FFF7D4F9032300E015
S11313A0052301930BE00223FBE740F2AA411E4808
S11313B003F0A8FC03E0002001A9FFF7E3FC019877
S11313C005B05DF804FB002001A9FFF7B1FCF6E7C6
S11313D002934FF0E0231B695B0705D5FFF79CF9E7
S11313E00C230393039BDCE703A902A8FFF72CFD5E
S11313F0F8E7002001A9FFF751FDE0E7FFF7BCF98A
S11314000823CEE703F076FC0723CAE70123C8E7E5
S1131410002001A9FFF7C6FDD1E7002001A9FFF7CD
S11314206DFDCCE700800050B45600004FF400225C
S1131430034B5A66012203F580439A62704700BF4A
S113144000900050036870B50F2B044604D940F691
S1131450F2216E4803F056FC63680F2B04D940F662
S1131460F5216A4803F04EFCA3680F2B04D940F61B
S1131470F821664803F046FC237B0F2B04D940F681
S1131480FB21624803F03EFC637B0F2B04D940F63A
S1131490FE215E4803F036FCA37B3F2B04D940F6C3
S11314A001315A4803F02EFCE37B3F2B04D940F66C
S11314B00431564803F026FC2369032B04D940F673
S11314C00731524803F01EFC6369032B04D940F62C
S11314D00A314E4803F016FCE369012B04D940F6A7
S11314E00D314A4803F00EFC8020FFF7EBFE032881
S11314F000F082804FF40022454B02215A6645F6E3
S11315000E03444AC2F88030434B9962012103F52B
S113151080539962936DD903FCD4D4E900131B055D
S113152043EA0163E17B94F822500B43217B94F856
S1131530236043EA0143617B43EA0133A17B43EA2D
S1131540811313619169D4E904031B0643EA8063A0
S113155001F000410B43A17EE07E0B43217E43EA70
S11315600143617E43EA01239361E369126A002B1C
S11315700CBF0021082122F00D0242EA030242EAD4
S11315808002244B42EA01021A6294F820204FEAB6
S1131590421232D1986A94F8211020F0330042EAC2
S11315A00112024342F001029A621C4A996D32EA26
S11315B00101FBD1022218498A621A659A6D520010
S11315C0FCD41869A26820F4700040EA02504FF07D
S11315D000421861104B9A611DB9022203F5805331
S11315E09A6216B901220E4B9A6294F824301BB108
S11315F0084B0C4AC3F8802070BD996A21F033016E
S113160031430A4342EA4502EEE700BFB456000004
S11316100090005000C0005000D000500300014072
S113162000E00050F1A7FFFF014B93F90000704761
S1131630EE200020436810B5072B044604D940F679
S113164014512A4803F05EFBA368032B04D940F627
S11316501651264803F056FB2378032B04D940F691
S11316601851224803F04EFB94F90130002B04DAA0
S113167040F61A511D4803F045FB4FF480011C4A03
S1131680637851664FF4D151022002F5B8325162A9
S113169018494F2B48604FF0010028BF4F2301F534
S11316A0805148601169C903FCD4217843EA0123BD
S11316B05361D4E901131B0143EA0123617B0B430A
S11316C0217B43EA41039360E37BA17B1B0143EA53
S11316D04113617C0B43217C43EA41035360A37CA7
S11316E013B16FF4D153536210BD00BFB456000060
S11316F00090005000100250014B1880704700BF4A
S1131700BC100020B0F5207F10B565D00ED8B0F520
S1131710007F4FD003D800B3B0F5C07F1DD040F296
S1131720FE21BDE81040344803F0ECBAB0F5607F08
S1131730F5D14C1E012C06D9042904D040F2E12134
S11317402D4803F0DFFA2D4AD2F8803023F030031D
S113175043EA0413C2F8803010BD102901F1FF34AC
S113176004D8274B23FA01F1CB0704D440F2B52166
S1131770214803F0C7FA03F05DFB03F069FB4FF463
S11317808031204B1D4A1967136F23F4704343EAD9
S113179004331367FEF7C0FF0446FFF7BDFAC0F138
S11317A00201204603F04EFB00F03EF8BDE8104075
S11317B0FFF778BD4C1E1F2C04D940F2F2210E48CD
S11317C003F0A0FA0D4BD3F8901021F0F85141EA40
S11317D00461C3F89010BFE74C1E012C04D94FF4E8
S11317E03E71054803F08EFA044B196F21F48061B1
S11317F041EA84211967AFE7B45600000080005025
S1131800160101000090005008B50121022000F0EB
S1131810E7F803F00FFB03F01BFB4FF48032014B9E
S11318201A6708BD0090005008B54FF4C070FFF768
S11318306FFCBDE80840044988428CBF02210121A5
S11318404FF42070FFF75EBF80F0FA0238B5C5B2DE
S11318503F2D044604D940F21F31074803F052FAE1
S1131860064B640953F8240005F01F05E840C04303
S113187000F0010038BD00BFE356000000E100E0C5
S1131880194B10B51B6873B3184A5268012A2AD041
S1131890174A8020C2F80031FFF714FD05281FD134
S11318A04FF4C070FFF7A2FB0128044604D10221C3
S11318B04FF4C070FFF726FF07220E4B1A61012276
S11318C0A3F580535A60094A1369DB07FCD5012C40
S11318D009D12146BDE810404FF4C070FFF712BF94
S11318E00122054B5A6010BD9014002000C0015025
S11318F00080005000E0015000D0015000224FF45D
S11319000031074B1A60074A516602F59832526853
S1131910012A02BF044AD2F800211A60704700BFAE
S1131920901400200090005000800050044A417838
S1131930536F23F4407343EA01235367704700BF96
S11319400040005010B5044608B1FFF7D7FF0E4A17
S1131950136943F00403136101F0EAF803F0A2FAF7
S113196003F090FA03F0B4FD03F090FA03F09BFA4D
S113197001F0F2F81CB1BDE81040FFF781BFBDE8EB
S11319801040FEF7C9BE00BF00ED00E010B50446EC
S113199008B1FFF7B3FF0C4A136943F00403136162
S11319A001F0C6F803F06EFA03F092FD03F06EFA4C
S11319B001F0D2F81CB1BDE81040FFF761BFBDE8EB
S11319C01040FEF7A9BE00BF00ED00E0034A017914
S11319D0D36E23F030030B43D366704700400050AE
S11319E02DE9F0410446264BD3F88420D006FBD4DD
S11319F0D3F88430C3F381139C423ED0FEF772FEC9
S1131A00012C05460BD11F4B984204D940F23C717E
S1131A101D4803F077F90121284603F013FA03F077
S1131A2031FA4FF00072194B07465A66204603F00C
S1131A303FFA4FF48063124E621E9340DFF84880F1
S1131A403367736E9A0103D4D6F884309B060AD5A3
S1131A50384603F01BFA022C0FD12846BDE8F041AA
S1131A60002103F0EFB9D6F884309906E9D540F2A5
S1131A704A71404603F046F9E3E7BDE8F08100BF50
S1131A8000400050005A62021357000000600050EA
S1131A9007B518B90191FEF725FE0199064B1B788D
S1131AA043B1064B984205D8012003B05DF804EB1E
S1131AB0FFF796BF0220F8E7EF200020005A6202E9
S1131AC00278034B012100201A70FFF7E1BF00BF29
S1131AD0EF2000204FF0004210B501244AF6CD312A
S1131AE0154B5A66154A03F50B2354605A6C196456
S1131AF0224088B9996811F0010F114903D08C6014
S1131B00D86AC007FCD501234B6012B10D4B0E4AB5
S1131B101A6403F0CEF910BDD96A0907FCD4202158
S1131B20074B59620121A3F58053996005494B6A1B
S1131B309B06FCD5E9E700BF009000500050095017
S1131B4000600950004009503254FFFF4FF000423A
S1131B5038B5194B194C5A66012203F50C235A6007
S1131B604AF6CD33656C23644378154093401343A0
S1131B70134AD363A368827823F0740343EA0213FD
S1131B80C278002A14BF042200221343A3600279FE
S1131B90837943EA022323614279C37943EA022326
S1131BA063610078FFF796FF0DB1064B236403F0E1
S1131BB080F9012038BD00BF00900050004009505A
S1131BC0004000503254FFFF1F2970B504460D46F3
S1131BD0164603D99121074803F094F836B104F569
S1131BE08054012101FA05F5256070BD04F5005407
S1131BF0F7E700BF4257000038B50D460446D8B198
S1131C0001281CD002281CD0032803D10F23EB4049
S1131C10DB0704D440F22D410B4803F073F8302065
S1131C20012141F21003444304F1A04401FA05F5F3
S1131C3004F57034E55038BD40F2FF13E7E71F2385
S1131C40E5E7FF23E3E700BF6C55000038B50D4618
S1131C500446D8B101281CD002281CD0032803D183
S1131C600F23EB40DB0704D440F2FE310B4803F0B2
S1131C7049F83020012142F21003444304F1A04406
S1131C8001FA05F504F57034E55038BD40F2FF1350
S1131C90E7E71F23E5E7FF23E3E700BF6C550000F8
S1131CA02DE9F3470D4614461E4681469DF82880CB
S1131CB09DF82C70002843D0012844D0022844D039
S1131CC0032803D10F23EB40DB0703D4BF212848AB
S1131CD003F018F885EA040333F0030303D0C121A9
S1131CE0234803F00FF8072C4FF0030105F0030518
S1131CF02DD84FEA840A01FA0AF11E4809FA0AF2B9
S1131D00019103F0D7F801991B4805FA0AF203F090
S1131D10D1F8324621461948FFF756FF424621467C
S1131D201748FFF751FF0123164AA340C2F8203495
S1131D3021463A46144802B0BDE8F047FFF744BFD5
S1131D4040F2FF13BFE71F23BDE7FF23BBE7A4F166
S1131D50080A4FEA8A0A01FA0AF10C4809FA0AF257
S1131D60019103F0A7F80199094805FA0AF2CEE7B0
S1131D70AA57000000C4035008C4035010C4035001
S1131D8014C4035000E0035024C4035004C403509B
S1131D900CC40350F8B50D4616461F46044660B3FE
S1131DA001282DD002282DD0032803D10F22EA4088
S1131DB0D30704D44FF4B0711B4802F0A3FF26B13B
S1131DC02946204607B3FFF717FF04EB4403072D0A
S1131DD04FF00F014FEA031319D8A80006FA00F2D6
S1131DE081401248184403F065F8E6B929462046B4
S1131DF0AFB1BDE8F840FFF7FFBE40F2FF12D6E7EF
S1131E001F22D4E7FF22D2E7FFF720FFDDE7A5F189
S1131E100800800006FA00F281400548E2E7BDE8C8
S1131E20F840FFF713BFF8BDAA57000004C00350E1
S1131E300CC00350022838B505460C4603D94C2182
S1131E400C4802F05FFFE378627821785B0143EA93
S1131E50820322790B4343EA02130C226A4302F100
S1131E60B0421363012902BFA278034B43F8252033
S1131E7038BD00BFDA570000E880035008B54FF0C2
S1131E80B0435A6802B960B15B680BB103F046F81D
S1131E904FF0B04130B10120074B586003F03EF8D9
S1131EA0C86008BD03F03AF80223CB6003F036F8AB
S1131EB00122024B5A60F4E7001000580020005839
S1131EC04FF0B0435B6870B50BB103F027F8012104
S1131ED0104B4578596083780679002BC37814BF7A
S1131EE002240024002B14BF042200224379DB00C7
S1131EF043EA06132B43234313434FF0B04293604A
S1131F00054B59600378002B14BF0B460223D360A2
S1131F1070BD00BF00200058001000580B4B9842C1
S1131F2011D003F5804398420DD003F580439842C5
S1131F3009D003F58043984205D003F58043C31AC2
S1131F405842584170470120704700BF0080045038
S1131F50F8B51F461A4B0E46984215461ED003F597
S1131F60804398421CD003F5804398421AD003F56D
S1131F708043984218D003F58043984216D0114804
S1131F80822102F0BFFE4FF0FF3006210E4C7FB1DC
S1131F9001FB006004EB8000C560F8BD0020F4E79D
S1131FA00120F2E70220F0E70320EEE70420ECE74B
S1131FB001FB00602D0204EB8004E560EDE700BF47
S1131FC0008004500A5800000081035038B50546CB
S1131FD00C46FFF7A3FF18B9A5212B4802F092FE87
S1131FE0284602F0A3FF012205F500531A63237962
S1131FF061881B0243EA8143617A0B4361780029BB
S113200014BF402100210B43A17A002914BF802171
S113201000210B43E17A002914BF202100210B4346
S1132020217B002914BF102100210B43617B00296F
S113203014BF082100210B43A17B002914BF4FF4D6
S1132040006100210B43A179002914BF4FF48031B2
S113205000210B436B6005F580531A6322780AB99B
S11320600223EB6000236B62E179237A43EA810364
S11320706179002914BF102100210B43AB600AB120
S11320800123EB6038BD00BF0A580000F8B50646CE
S11320900F461446FFF742FF18B9FA21274802F009
S11320A031FE022F03D9FB21244802F02BFE3046D7
S11320B002F03CFF012206F500531A63E279E57A47
S11320C0002A627A14BF4FF480110021002A14BF41
S11320D010220022A37943EAC5430B43134306EBC2
S11320E047152B66237A2BB3237B2A6E394642EAA3
S11320F043422A66013B18BF0123A278FFF728FF59
S1132100012306F580563363637822781B0643EA7D
S11321108263E27843EA0233227943EA82236279D2
S113212043EA0223A27A002A14BF042200221343A2
S11321306B66F8BD2B6E2B66E2E700BF0A58000001
S113214070B506460C46154622B940F28E210C485D
S113215002F0D8FD24B94FF42070FEF7D9FF0446ED
S11321606D00013CB4FBF5F4064B250213EA04238D
S113217004D040F2B321024802F0C4FDF56170BD01
S11321803B580000070080FF194B10B598420446E5
S113219008D003F58043984204D040F242411548E8
S11321A002F0B0FD012204F580535A6040F6AA63A0
S11321B041F20502636100230F49A360E365E26015
S11321C004F500522361E361E36491640849A36563
S11321D08C4202D00948844207D18C42236502D044
S11321E0064B9C4201D1002363650123536010BD5B
S11321F000C005503B580000FFFF010000000650DE
S113220038B5334B044698420D4608D003F5804355
S1132210984204D040F269312E4802F073FD204602
S1132220FFF7B2FF0122A97B04F580535A602A8A82
S1132230A368002914BF4FF48061002142F0010219
S113224013432A7D0B43002A14BF4FF0005200228F
S1132250A360A3681343A360AB7C5BB11C4AEB7C13
S113226094422DD1A2F51032C2F88C31E36D43F0C3
S11322708003E3652B7B2046D5E9011243F48053A8
S1132280E360FFF75DFF6B7B0BB1102363616B7D34
S11322901BB1A36843F48033A360AB7D1BB1A36877
S11322A043F40043A360EB7D2A7E1B07120503F071
S11322B0E04302F4E0021343A3652B78636138BD65
S11322C0054A944204BFA2F52032C2F89C31CDE7FE
S11322D000C005503B5800000000065007B56B468F
S11322E0054A1068516803C36846FFF72FFC0020B5
S11322F003B05DF804FB00BF6C58000013B5002464
S1132300064A6846536F43F00103536700948DF8FF
S11323100440FFF75BFB204602B010BD00400050B4
S113232030B58BB06C46154D0FCD0FC40FCD0FC417
S113233095E8030084E80300114BD3F84C21120301
S113234014D4D3F85041E4B28DF81940FFF76CF976
S1132350204480F308008DF818000A48FEF7F8F9C5
S11323606846FFF76FF800200BB030BD064B1C88A1
S11323704FF6FF739C4208BF7824E5E774580000C9
S11323800080E00F00F049020001E00F30B5094D74
S113239087B001AC0FCD0FC42B6801A8236025239F
S11323A08DF80530FFF746F96420FFF7A5F9002002
S11323B007B030BD9C5800006FF00402502110B5E6
S11323C00A480B4C12F0800FD3B21BBF03F00F036B
S11323D0043BA3181B1802F101020CBF83F800137D
S11323E01976402AEED1002010BD00BF00ED00E0B8
S11323F000E100E038B500F019FD0446E0B900F052
S1132400CBFD4FF4167343430C4803F5742303F2D6
S11324103F23B3FBF0F30A4A0A4913600A220D680A
S11324200948013A12F0FF0240F8043BF9D103EBEA
S1132430C3022B4413440B60204638BD40420F00B6
S1132440C8140020981400209C140020012208B510
S1132450034B1A7002F0D1FD024B186008BD00BF97
S1132460F0200020C4140020F8B5144C237823B3C2
S113247002F0C3FD124B134D1B68134EC01A012802
S113248038BF0120114B124F18602B7856F82320C7
S113249046F82300111A3A680E48521A0A213A6083
S11324A00932B2FBF1F20133DBB20260B3FBF1F2A9
S11324B001FB12332B7000232370F8BDF0200020A1
S11324C0C4140020F12000209C1400209414002047
S11324D098140020C8140020014B1868704700BFEE
S11324E0C814002020234FF400220A4981F82C3319
S11324F0094B5A66094A03F5405303F500504267F5
S113250002674FF48050C1F88401486003445A675D
S1132510704700BF00E100E000900050010000A0FF
S1132520044B9A6DD20702D40028FAD170470120D7
S1132530704700BF00C000500C4B10B51C6FE20781
S113254007D5012203F500531A67FFF78DFF00F04A
S113255025FA14F000521CBF054B1A67002CBEBFAD
S11325604FF00042024B1A6710BD00BF00C000507C
S113257000E00050034B1B78002B14BF0120022005
S1132580704700BFFA2000200329F8B505460E461F
S113259007D8174B5C5C032D19D8DFE805F0090F49
S11325A012154FF44371134802F0ACFB0024F2E718
S11325B044F00204104B1F687FB9F8BD44F00804CE
S11325C0F8E744F02004F5E744F08004F2E740F231
S11325D02131084802F096FBECE77B681A68144244
S11325E003D0314628465B6898473F68E4E700BF5C
S11325F0F9580000B0580000F014002038B5104D10
S11326002B78ABB10F4C23781BB100F0D1FA002327
S11326102370002000F0EEFA0B4C50B100F0F4FAF5
S11326200023012120782B70FFF7AEFF01232370D4
S113263038BD0122054B1A702278054B1A70F7E752
S1132640F9200020F4200020F2200020F8200020AF
S1132650FF20002010B502F015FC064B04461B7841
S11326601BB1BDE8104002F011BCFFF7C7FF2046C4
S1132670F7E700BFF320002038B5134D04462B784C
S1132680FF2B05D160B14FF46771104802F03AFB9B
S11326902B782BB924B940F29E310C4802F032FB5E
S11326A0002C14BF0122FF222B7813442B700AD074
S11326B0074B1B78012B06D9064B1B781BB9BDE8C9
S11326C03840FFF79BBF38BDFA200020B058000007
S11326D0F2200020F820002070B502F0D3FB114E48
S11326E0054633788BB900F0A1FB044620B1284697
S11326F002F0CCFB204670BD0B4802F004FB0B4BF0
S11327001C6000F049FC0A4B186000F08DF902F0DF
S113271030FC084B0024186001232846337002F073
S1132720B5FBE7E7F5200020F0140020F8140020A2
S1132730F4140020EC14002068B502F0A3FB094B4C
S113274006461B78012B04D802F0A0FB002528467E
S113275068BD054B1D6800F091FA0544304602F04F
S113276095FBF4E7F2200020F8140020054B1B68C9
S11327705843054B00F5742000F23F20B0FBF3F002
S1132780704700BFF414002040420F002DE9FF47BA
S1132790EFF3108672B600E000BF02F06EFE002870
S11327A000F0A7806F4D704F2B7823B10020FFF706
S11327B063FF00232B70FFF7DDFE012812D00AD936
S11327C00238C0B2012840F29B8040F2853167484C
S11327D002F098FA06E02B7823B10020FFF74CFFB3
S11327E000232B70FFF7C6FE0128804604D9604BF6
S11327F01B780BB902F0BBFB5E4CDFF89891207894
S1132800DFF894A140450AD0002389F800309AF8F3
S1132810003013B94146FFF7B7FE84F8008099F8F9
S113282000303BB12378022B04D1002389F8003017
S113283000E000BFB8F1010F0FD9DFF8348198F838
S1132840003053B94C4B1B7823B900F0ABF901228B
S11328504A4B1A70012388F80030207800F0F2F90E
S11328609AF8003013B1464B1B78237000E000BF88
S113287006B962B6EFF3108672B6424B1A7852B1BB
S113288000221A703E4B20781B78984203D1012114
S11328902170FFF779FE384600F002FB01F0EAFFF1
S11328A08046002880D1324F89F800003B789BB1E4
S11328B0DFF8C8908AF8000099F800301BB100F0E6
S11328C077F989F80080002000F094F9002840D0BE
S11328D000F09AF900233B702B7823B10020FFF716
S11328E0CBFE00232B7000212078FFF74DFE002340
S11328F0237000E000BF06B962B604B0BDE8F087FB
S1132900002003A900F010FB00287FF46BAF1E4BDE
S1132910039A1B689A4204D80120FFF7ADFE0123F5
S11329205FE71A4B1C6800F0A9F9241804D540F29B
S113293072310E4802F0E6F903998C42ECD200237E
S113294002223846CDE90032091B114A02F015FB78
S113295048E7012000F076F906B962B6EFF3108675
S113296072B6B0E7FE200020CC140020B05800005E
S1132970F9200020F2200020FD200020F420002077
S1132980FF200020F7200020EC140020F814002081
S113299055260000FC200020F820002010B5094B2B
S11329A01B786BB1084C237853B100F02DF9002348
S11329B0064A237013700123054A1370054A1370E5
S11329C010BD00BFF2200020F8200020F9200020D4
S11329D0F6200020F720002073B5114E044633780A
S11329E0834212D000238DF8043080B102238DF885
S11329F0053001A8FEF79AFF0A4D402054B1FFF7B5
S1132A00B5FE2B68181A2860347002B070BD8DF8BA
S1132A100500EEE7FFF7AAFE2B681844F3E700BFB2
S1132A20C11000200015002073B5002401A88DF802
S1132A300440FFF745F820464FF40024FFF7CCFF8D
S1132A403449354B0A6F02F007021A60D1F820317D
S1132A50D1F8240101F580514C664FF400344C66E2
S1132A6001F598318969032A00F0070001F0020199
S1132A703BD003F003039C1E63426341022808BF5A
S1132A8043F001032548264D0370002939D0214A1B
S1132A903BB9D2F8003103F00303591E4B424B41BA
S1132AA00370D2F8003103F00303022B1FD0032B71
S1132AB020D0012B21D1FDF745FE10B3194B411E47
S1132AC0DC680023024608461946C4F30B04164E7C
S1132AD0013404EB8404E4FB060101F0FFFEFFF77C
S1132AE045FE2B68184428600BE00123C6E7FDF778
S1132AF043FEE2E702F0FEF8DFE7D1210B4802F0E3
S1132B0001F96420FFF732FE2B681844286002B0F4
S1132B1070BD00BF00800050FC1400200221002082
S1132B200015002000C0015040420F00FD58000075
S1132B30074B1A7852B100221A70064A136F23F019
S1132B40070343F001031367FDF7E6BD704700BFB9
S1132B5000210020008000500E4B10B51B7883B17B
S1132B60022002F06BFA60B100F010FA48B10A4B8F
S1132B709A6DD20306D5DB6D9B0703D50122074B63
S1132B809A6210BD0124064B1C70FFF75FFC034BD7
S1132B909C62F6E70221002000C0005000D00050E3
S1132BA0012100200122014B1A70704700210020EE
S1132BB038B50C4B1B786BB10B4C23787BB90B4BA2
S1132BC00B4D9A6D12F4803F05D0DB6D9B0702D547
S1132BD00123AB6238BDFFF739FC0123AB6200234C
S1132BE02370F7E7022100200121002000C00050DB
S1132BF000D00050034B1B780BB1FFF791BC0120B0
S1132C00704700BF0221002008B502F04FF9094ABD
S1132C100949136F096823F007030B431367074B34
S1132C201B7813B10122064B9A62BDE80840FDF7F8
S1132C3073BD00BF00800050FC140020022100205E
S1132C4000E0005002280AD003280BD001280CD140
S1132C50084A136923F00403136130BF704700204E
S1132C60FEF770BE0020FEF791BE40F2CB11024881
S1132C7002F048B800ED00E0FD58000008B5054B2F
S1132C80187818B1FFF728FC00EBD000024B1B6842
S1132C90184408BD022100200015002010B502F0E0
S1132CA0BAF90A4C0A4B19682368C31A01B10BB963
S1132CB0206010BD4A699A423ABF9B1A0022D21A78
S1132CC04A6128BF00238968F0E700BF041500208B
S1132CD010150020C38870B504460D463BB9FFF7B4
S1132CE02BFD8542064602D202F035F935460F49DE
S1132CF065610B68ABB90C60A36011E0AD1A9A680A
S1132D00184665612AB113465A69AA42F6D950B1E8
S1132D101A4613468460A36013B15969491B59616B
S1132D2070BD0020F0E70C60F5E700BF101500202F
S1132D3038B5134D2B685B6993B1124A02201468AD
S1132D401C4402F06FF9204600F01CFA00230E49DF
S1132D502A680B70D088800709D501230B7038BD11
S1132D60022002F05FF9022000F056FAEEE79268C2
S1132D70002AF4D050690344012BEBD9EFE700BFDC
S1132D8010150020041500200421002070B51646FB
S1132D909DF81420C0E903360271049ABDF8183076
S1132DA002600022C380826004460D4602F033F9BB
S1132DB03044A0613DB9E368656113B120462168E0
S1132DC0984796B1354602F05DF80646FFF766FF70
S1132DD029462046FFF77EFF054B1B68A34201D11D
S1132DE0FFF7A6FF304602F051F8002070BD00BF87
S1132DF01015002000220C490B687BB183420AD1D4
S1132E0083687AB1936083681BB15A6941690A4443
S1132E105A61002070471A469B68EEE70028EFD0FD
S1132E20022070470B60EEE71015002070B502F029
S1132E3030F8144E05463478FCB9134B1C60134B20
S1132E401C60134B1C8000F059F9012002F0EAF8D1
S1132E5002F003F90F4B0246186020B9284602F02D
S1132E601EF8232070BD234640F2E7310A4801F0E2
S1132E7035FD0A4B186001233370284602F00FF821
S1132E800020EFE703210020101500200415002086
S1132E90EC2000200C15002018FCFFFF0815002072
S1132EA02DE9F0410546F8B101F0ECFF0F4F06465D
S1132EB0FFF7F4FE2846D7F80080FFF79BFF04468F
S1132EC028B1304601F0E2FF2046BDE8F081A84574
S1132ED03B6803D123B1FFF72BFFF2E7002BF0D1BE
S1132EE0022000F081F9ECE72224EDE71015002020
S1132EF038B50C46054698B191B100230B7001F02A
S1132F00C8FF0121074B1B680BB122781AB101F0ED
S1132F10C6FF002038BDAB4214BF9B682170F3E7A5
S1132F202220F7E7101500202DE9F04107468846D6
S1132F3001F0AFFF00260546124B1C6824B9284651
S1132F4001F0ADFF1B2016E063691E44E388BB4219
S1132F5015D102F060F80C4C2368C01AB0420CD2B0
S1132F6002F059F822683244121A2846C8F80020A0
S1132F7001F095FF0020BDE8F0810022F5E7A46888
S1132F80DCE700BF1015002004150020014B187861
S1132F90704700BF04210020014B1868704700BF30
S1132FA00C150020C2072DE9F84F04460BD54F4AF3
S1132FB0138801339BB21380FFF770FE4C4B1B68E0
S1132FC00BB1FFF7B5FEA30740F18E8001F061FF5E
S1132FD04FF0000A05465646FFF760FED046444FC0
S1132FE0DFF814913C680CB163698BB10022414B4A
S1132FF0012E1A7003D1BAF1020F08BF1E70002C03
S113300062D0FFF795FE2846BDE8F84F01F047BFB0
S113301023461A792179914288BF1C469B6813B1D3
S11330205A69002AF5D0284601F039FFD4F810A0D7
S1133030BAF1000F4CD001F0EEFFA269851AEB172C
S1133040AA4578EB030344DA236913440122A361FC
S113305023691BB312BBEB17BAEB050563EB430300
S1133060002B04DA40F20C51484601F04BFEA38BCE
S113307033B1E28B13449BB2B3F57A7F1CD2E38362
S113308001F007FF824629462046FFF723FEA36985
S1133090226950461344A36101F001FFE368B4F8C8
S11330A006A0013613B120462168984701F0F1FECD
S11330B00546FFF7F3FD95E7A3F57A73E383A36968
S11330C0013D013BA361DBE7022000F08DF89AE7A4
S11330D0554601F0DEFE83462046FFF78BFE584638
S11330E001F0DDFE0022B3E7BDE8F88FEC200020FC
S11330F010150020052100204D5900001FB50024A3
S11331001D4B012118689A880290D3F806009B7A17
S113311000903E20ADF80C208DF80430FDF7CEFF72
S11331208DF8084001F075FF8DF80C0002A8FEF739
S1133130C7FE694601208DF80040FEF77BFE4FF084
S1133140B04240F2FF31936923F47F7323F0030309
S113315093610A4B5961936A13F00803FBD113621C
S11331600120FEF78BFE4FF48052054BC3F88021FB
S11331701A6004B010BD00BF905900000020005830
S113318000E100E010B5044601F07CFE4FF0B042CF
S1133190936A1907FCD4136A116C5269520604D459
S11331A0CA1A032A01D88B420ED1E21A022A98BF06
S11331B0DC1CB4F1FF3F38BF013C4FF0B0431C644A
S11331C09A6942F040029A6101F060FE054A137860
S11331D03BB14FF0B041CB6B43F00203CB63002310
S11331E0137010BDC2100020820700F001030AD53D
S11331F00121084A43F0400311704FF0B041CA6BFB
S113320022F00302CA634FF0B0418A6922EA030341
S11332108B617047C2100020830742BF4022014BDC
S11332205A6170470010005810B501F032FE4FF09B
S1133230B04304465B695A06074A03F0010003F0F1
S1133240510348BF40F002005361FFF7ABFE204634
S1133250BDE8104001F023BE0020005810B504461C
S1133260FDF75AFA4FF47A729042B0FBF2F105D2AC
S11332703621BDE810400C4801F044BD0B4BB3FBB4
S1133280F1F30B49884201D93C21F2E702FB04F037
S1133290B0FBF3F0022806D9BDE810400323B0FBCD
S11332A0F3F0FCF74DBF10BD9B59000040420F00E6
S11332B0E7CD9A3B10B50C4601F0EBFD04F0F003AA
S11332C0B02B24D005D8A02B14D001F0E8FD0020A9
S11332D010BD04F0E003C02BF7D1134B14F0010F21
S11332E0D3F8282314BF22F4803222F00102C3F859
S11332F02823EAE70C4B14F0010FD3F8202314BF62
S113330022F4803222F00102C3F82023DDE7064BC9
S113331014F0010FD3F8242314BF22F4803222F0D6
S11333200102C3F82423D0E700C0035038B54FF09E
S1133330FF35084C01352846FCF7FEFF4369A342DC
S1133340F8D1284601F0E3FE034B04F50054636210
S113335038BD00BF0040005A8F330F80EFF3058360
S113336073B9EFF31082094B12B9EFF3118212B162
S11333701A68022A04D0186828B901221A60704712
S11333806FF0050070474FF0FF307047EC170020D6
S113339010B5EFF30583ABB9EFF310820C4B12B900
S11333A0EFF3118212B11A68022A0BD01A68012AAB
S11333B00BD10024074AD47702221A6000F064FB80
S11333C0204610BD6FF00500FBE74FF0FF30F8E733
S11333D0EC17002000ED00E040F67411014801F004
S11333E091BC00BFD6590000034B0360034B0B6034
S11333F0A0231360704700BF941700201415002009
S1133400034B0360034B0B60A0231360704700BFA2
S1133410701A0020F017002038B50D46044620B974
S11334204FF48D71164801F06DFC01F067F8D4E992
S11334300F314B432268D0185B1A1344A060E36039
S11334400020FF23A063626084F8443084F8453090
S113345065B9236933B104F1100000F051FD08B1DE
S113346001F0D9FF01F058F8012038BD04F1100033
S113347001F093FE04F1240001F08FFEF2E700BF97
S11334801C5A0000F7B50D4616461C46074620B9DF
S113349040F25511194801F035FC24B940F2591194
S11334A0164801F02FFC26B325B940F25D111348EC
S11334B001F028FC50230193019B502B04D04FF4BE
S11334C0B3710E4801F01EFC019B7CB10121002D5B
S11334D008BF26462046C4E90F7584F846102660C6
S11334E0FFF79AFF9DF8203084F84C30204603B053
S11334F0F0BD002DDED04FF4AF71D8E71C5A0000A8
S11335002DE9F04385B00F461E460446019220B9CA
S113351040F21931444801F0F5FB37B9236C23B16B
S113352040F21A31404801F0EDFB022E07D1E36B63
S1133530012B04D040F21B313B4801F0E3FB00F0C7
S11335408FFD30B9019B23B140F21E31364801F0A2
S1133550D9FB4FF00008C14600F0D0FFA26BE36B2B
S11335609A4201D3022E13D132463946204601F045
S113357060FE636A1BB104F1240000F0C1FC08B1D1
S113358001F049FF00F0C8FF012005B0BDE8F08359
S1133590019D1DB900F0C0FF0020F6E7B8F1000F4F
S11335A002D102A800F0F2FC00F0B6FF00F0AEFA7F
S11335B000F0A4FF94F84430FF2B08BF84F8449033
S11335C094F84530FF2B08BF84F8459000F0A4FF21
S11335D001A902A800F0E6FCF8B900F08FFFA26B85
S11335E0E36B9A420FD100F097FF019904F11000A8
S11335F000F04CFC204601F067FE00F041FB48B9A6
S113360001F009FF06E000F087FF204601F05CFEB0
S113361000F036FB4FF001089EE7204601F054FE0F
S113362000F02EFBB8E700BF1C5A00002DE9F84358
S1133630894690461F46044620B940F2ED3127489A
S113364001F060FBB9F1000F06D1236C23B140F205
S1133650EE31224801F056FB022F07D1E36B012B18
S113366004D040F2EF311D4801F04CFB01F0F0FEB4
S1133670A26BE36B06469A4201D3022F2CD194F835
S113368045503A46494620466DB2A36B01F0D1FD40
S11336906B1C15D1636A0BB901240BE004F12400FF
S11336A000F02EFC0028F7D0B8F1000FF4D001246C
S11336B0C8F80040304601F0D6FE2046BDE8F88345
S11336C07F2D04D14FF48F61044801F01BFB0135B9
S11336D06DB284F84550DFE70024EBE71C5A000084
S11336E02DE9FF410E460446019220B940F23C51B7
S11336F03B4801F007FB36B9236C23B14FF4A861B2
S1133700374801F0FFFA00F0ABFC30B9019B23B15C
S113371040F24551324801F0F5FA0027B84600F06E
S1133720EDFEA56BA5B131462046013D01F0B6FD85
S1133730A563236933B104F1100000F0E1FB08B183
S113374001F069FE00F0E8FE012004B0BDE8F0815C
S1133750019D1DB900F0E0FE0020F6E717B902A8AC
S113376000F014FC00F0D8FE00F0D0F900F0C6FE22
S113377094F84430FF2B08BF84F8448094F8453013
S1133780FF2B08BF84F8458000F0C6FE01A902A8FB
S113379000F008FCC0B9204601F040FD70B1019969
S11337A004F1240000F072FB204601F08DFD00F0CE
S11337B067FA08B901F02FFE0127B0E7204601F0AF
S11337C083FD00F05DFAF7E7204601F07DFD00F08F
S11337D057FA204601F022FD0028EDD0BCE700BFD7
S11337E01C5A0000002310B5064A52F833402CB985
S11337F042F8331002EBC303586010BD01330A2BA7
S1133800F3D1FAE7C81A00202DE9F041044600F08C
S113381075FE2D4B2D4E1A682D4F01321A603568F6
S1133820002D43D134601B68012B1FD1B84640469C
S1133830013501F0B2FC382D08F11408F7D1DFF896
S1133840B880244D404601F0A8FC284601F0A5FCB0
S1133850214801F0A2FC214801F09FFC204801F01E
S11338609CFC204BC3F800801F4B1D6014201F4A92
S11338701368013313601E4A23641168E36A8B42A0
S113388000FB037004F1040188BF136001F093FC92
S113389000F042FE174B1B689BB13368DA6AE36A97
S11338A09A420ED2BDE8F04101F0B5BD114B1B6840
S11338B0002BDBD13368DA6AE36A9A4298BF34603A
S11338C0D4E7BDE8F08100BF841F0020181B00204E
S11338D0241B0020AC1F0020CC1F0020F81F002058
S11338E0E41F00201C1B0020201B0020901F002030
S11338F0941F0020E01F0020981F0020F8B5044604
S1133900144B154E1D6830680F46043001F076FCE8
S1133910631C07D137B1316810480431BDE8F84061
S113392001F049BC33682C195C6007D30C4B186850
S11339303168BDE8F840043101F049BC094B18680E
S11339403168043101F043FC074B1A68A24288BF76
S11339501C60F8BD0C200020181B0020E41F002070
S1133960201B00201C1B0020C01F0020094B0A4AFA
S11339701B681268D06A50B9084A1268012A07D82D
S113398033B9074B1868074B1B68C01A70470020EF
S1133990704700BF941F0020181B0020241B002028
S11339A0C01F00200C200020064A13681968064B2B
S11339B019B94FF0FF321A6070471268D268126862
S11339C0F9E700BF1C1B0020C01F002010B590F8B1
S11339D0553004463BB9006B00F04CFE2046BDE870
S11339E0104000F047BE012BF9D0022B06D0BDE8F1
S11339F0104040F69771024801F084B910BD00BF31
S1133A00585A00002DE9F04387B00546DDE90F94CC
S1133A100E4617469846B9F1000F04D140F25521DD
S1133A20184801F06FF924B940F25621154801F005
S1133A3069F958230593059B582B04D040F25E2165
S1133A40104801F05FF9059BCCB1B9F1000F16D015
S1133A50022384F8553004ABC4F8309001930E9BD4
S1133A60284600933A4643463146029401F087FCC7
S1133A702046FFF7C9FE049807B0BDE8F083002391
S1133A800493F8E7585A000030B5002589B007AA16
S1133A9006A905A8CDE90555FFF7A6FC059B079ADD
S1133AA00293069B1249CDE9005312482B46FFF7B7
S1133AB0A9FF80B100F076FB012804460FD101F084
S1133AC0C7FC4FF0FF320C4B1A600C4B1C600C4BC4
S1133AD01D6000F08DFD0B4B1B6809B030BD013437
S1133AE0F9D140F64301084801F00CF9F3E700BFAF
S1133AF0945A0000553D0000C01F0020E01F002024
S1133B000C2000204C100020585A0000024A136870
S1133B1001331360704700BF8C1F0020014B1868ED
S1133B20704700BF0C20002038B5084D084A2B68A8
S1133B30126803449342044604D940F648210548D8
S1133B4001F0E0F8286804442C6038BD0C20002003
S1133B50C01F0020585A00003D4B2DE9F74F1B6849
S1133B60002B6ED13B4B1D6801351D609DB93A4C4D
S1133B7023681B6823B140F6C921384801F0C2F814
S1133B80374B2268196821601A60364A136801337A
S1133B901360FFF709FF344E00243368334F9D420E
S1133BA0DFF8D48011D21422D8F80030DB6A5343F2
S1133BB0FB58022B2E4B28BF01241B68002B18BF77
S1133BC00124204603B0BDE8F08FDFF88C90DFF8C5
S1133BD0ACA0D9F800301B681BB94FF0FF33336039
S1133BE0E1E7D9F80030DB68D3F80CB0DBF8042047
S1133BF0954201D23260D6E70BF1040108460191E7
S1133C0001F0FCFADBF82820019922B10BF118002D
S1133C1001F0F4FA01991423DBF82C00DAF80020FF
S1133C20904288BFCAF8000003FB007001F0C3FA99
S1133C30D8F80010DBF82C20CB6A9A4228BF012464
S1133C40C7E70C4A0024136801331360B9E700BFC7
S1133C508C1F00200C2000201C1B0020585A000040
S1133C60201B0020C41F0020C01F0020241B002094
S1133C7010200020C81F0020181B0020941F0020C3
S1133C80F7B52B4C236823B940F6B601294801F057
S1133C9039F800F033FC2368013B236024682CB11D
S1133CA0002400F039FC204603B0F0BD224B1B6811
S1133CB0002BF5D0214D224E224F1EE0EB68DC682C
S1133CC004F1180001F09AFA211D0846019101F04F
S1133CD095FA1420E36A326800FB03709342019959
S1133CE088BF336001F067FA174BE26A1B68DB6A2E
S1133CF09A4202D30122154B1A602B68002BDDD1A6
S1133D000CB1FFF751FE124D2C6844B101270F4E40
S1133D10FFF722FF00B13760013CF9D12C600B4B57
S1133D201B68002BBCD001F076FB0124B9E700BF6F
S1133D308C1F0020585A0000841F0020CC1F002034
S1133D40941F0020241B0020181B0020102000209A
S1133D50C81F0020F8B51C4C1C4F1D4D2368FBB92F
S1133D601C4B1B68012B01D901F055FBFFF7FEFD2D
S1133D700128F2D9FFF7CAFE174B1A68174B1B68C4
S1133D809A4204D240F6C251154800F0BBFFFFF737
S1133D90EDFD012801D900F045FDFFF771FFDCE7D7
S1133DA000F0ACFBFB68DE68301D01F027FA2B68DD
S1133DB0013B2B602368013B236000F0ADFB3046E0
S1133DC0FFF704FECAE700BF881F0020F81F002089
S1133DD0841F0020241B0020C01F00200C20002072
S1133DE0585A0000234B2DE9F0411A68224B1AB1AE
S1133DF001221A60BDE8F081204E1A6033681B6B03
S1133E001A68B2F1A53F0BD15A68B2F1A53F07D1A8
S1133E109A68B2F1A53F03D1DB68B3F1A53F04D0A2
S1133E20306831683431FFF7D7FA154F154D3C68C7
S1133E30DFF8548014236343E958EA1889B15168C0
S1133E40083349682B44994208BF4B68516008BF46
S1133E505360142303FB04556B68DB6833603C60D8
S1133E60C8E724B940F60441404600F04BFF013C4A
S1133E70E0E700BF8C1F002010200020181B00204A
S1133E80941F0020241B0020585A000038B50D460A
S1133E90044620B940F61E41074800F033FF074BA3
S1133EA020461968183101F092F92846BDE83840D7
S1133EB00121FFF723BD00BF585A0000181B002042
S1133EC070B50E461446054620B940F64D410A48E1
S1133ED000F018FF094B28461968183101F06BF9F6
S1133EE0002C214608BF3046BDE8704018BF4FF093
S1133EF0FF30FFF703BD00BF585A0000181B002015
S1133F00C36813B5DC6824B940F67D41184800F055
S1133F10F9FE04F118010846019101F06FF9154BFF
S1133F2001991B6803BB211D0846019101F066F944
S1133F30114AE36A1068019983424FF0140088BF64
S1133F4013600E4A00FB032001F035F9FFF72CFD46
S1133F500B4BE26A1B68DB6A9A4289BF012000208E
S1133F60084B186002B010BD074801F024F9EFE7D0
S1133F70585A00008C1F0020941F0020241B00208E
S1133F80181B002010200020CC1F0020034B1B68AE
S1133F900360034B1B684360704700BFC41F0020CD
S1133FA00C20002070B50D46044620B940F6F841B7
S1133FB0144800F0A7FE25B940F6F941114800F075
S1133FC0A1FE00F09BFA104B19682B685A1C17D0FD
S1133FD00E48266800686268864208D08A4206D87D
S1133FE0002301242B6000F097FA204670BD881A44
S1133FF08342F5D95B1A134420462B60FFF7C6FFB2
S11340000024F0E7585A00000C200020C41F0020B0
S11340100122014B1A607047102000200B4B1B68D3
S11340207BB90B4A106870B90A4B1B6863B90A4B19
S113403018680A4B1B68013B984214BF01200220F8
S11340407047002070471846704700BFCC1F0020FF
S113405010200020C81F0020E41F0020841F00201F
S1134060054B1B6833B1054B1B68002B0CBF0220AA
S11340700020704701207047E01F00208C1F0020A3
S113408013B5044610B9002002B010BD184B1B68CC
S1134090834204D041F24A01164800F033FEE36C37
S11340A023B941F24B01134800F02CFEE36CE16AA2
S11340B0A26C013B9142E364E5D0002BE3D1211DC6
S11340C00846019101F09AF8A36C0199C3F13802F2
S11340D0A261094AE362106883424FF0140088BF6A
S11340E01360064A00FB032001F065F80120CBE7CA
S11340F0181B0020585A0000941F0020241B002085
S1134100F7B5114C00F0FAF92568BDB90F4F104E00
S1134110384601F042F8304601F03FF80D4B1021CB
S11341201F600D4B0A201E600C4A0D4B0095FFF7D3
S1134130A9F9206010B10B49FFF754FB03B0BDE8A7
S1134140F04000F0E9B900BF982000201C200020B6
S113415030200020142000201820002006210020F8
S113416048200020995A0000914208B5416000613E
S11341700AD8D21A83699A420DD2084B011D1868D5
S113418001F025F8002008BD9A4201D2994202D2DA
S1134190034B011DF3E70120F5E700BF18200020C1
S11341A01420002010B588B0FFF7AAFF114B1B683C
S11341B0CBB1002407AA06A905A8CDE90544FFF759
S11341C01FF9059B079A0293069B0B490193282329
S11341D00A4800932346FFF715FC094B186010B1F9
S11341E0012008B010BD07484FF48D7100F08AFD1E
S11341F00020F6E7982000209E5A0000114300009A
S11342009C200020A65A0000F0B517460C461A461A
S1134210054687B030B940F28F110F48019300F082
S113422071FD019A0D4E306878B1052CCDE9024735
S113423004950CDCFFF714FF0023022814BF1A4670
S11342400C9A306802A9FFF75BF907B0F0BD0023B0
S113425002A9FFF7EBF9F8E7A65A0000982000201E
S11342602DE9F04F85B00646FFF758FCDFF898803B
S11342700546D8F8003083423FD94FF00009204F5B
S1134280DFF888A03B681A685AB91E4A116813609F
S11342900123396028463360C8F8005005B0BDE8F2
S11342A0F08FDB68DC68D3F800B0211D0846039169
S11342B000F0A4FF236A2046984794F82830039915
S11342C013F0040FDED0A3695B449B4505D2386824
S11342D06360246100F07BFFD4E700235A4619464B
S11342E02046CDF80090FFF78FFF0028CAD140F296
S11342F0B631504600F006FDC4E70023CAE700BF0C
S1134300142000201820002044200020A65A000079
S11343102DE9F047694E6A4D8AB03368D3F80080BE
S1134320B8F1000F56D00024DB68D3F80080FFF703
S1134330EDFB06A8FFF794FF069B8246614F002B16
S113434062D1002C4DD1404551D3FFF799FC33681D
S1134350DB68D3F80C9009F1040000F04FFF99F8E2
S11343602830580738D5D9F81810434652464846DD
S11343704144FFF7F9FE60B12346424621464846D0
S11343800094FFF741FF20B940F22121284600F0B4
S1134390B9FC4846D9F8203098470022386806A965
S11343A0FFF79EF90028B8D0069B0898002B2EDB57
S11343B0089C6369002B31D105A8FFF751FF069BC8
S11343C00246092BE9D8DFE803F02D2D2D535A714D
S11343D02D2D535A0124AAE723F0010389F828302C
S11343E0D7E7394B1B681C68B4FA84F46409224685
S11343F03868A8EB0A0100F09FFFFFF741FC002892
S1134400CBD101F008F8C8E7FFF73AFCC5E7079BF2
S113441009999847069B002BBFDBC9E7201D00F0D4
S1134420EDFEC9E794F82830A16943F0010384F84C
S11344302830079B20461944FFF796FE0028ACD08D
S1134440236A2046984794F828305907A5D50023B5
S1134450A269079920460A4400931946FFF7D4FE3F
S113446000289AD140F24331284600F04BFC94E7EF
S113447094F8283023F0010384F828308DE794F869
S1134480283043F0010384F82830079BA36133B933
S113449003904FF45771284600F034FC039AA16945
S11344A0134620461144FFF75FFE76E794F8283060
S11344B09A07DFD4204600F0DDF86EE714200020D0
S11344C0A65A00009820002018200020002307B5D9
S11344D00193084B1B68013304D04FF4157106484F
S11344E000F010FC00F0B4FF019B002BFCD003B0E3
S11344F05DF804FB50100020E35A000008B500F0FA
S1134500A7FF044A136801331360BFF34F8FBFF34F
S11345106F8F08BD5010002010B5094C236823B9D3
S113452040F2ED21074800F0EDFB2368013B2360D6
S1134530206818B9BDE8104000F095BF10BD00BF59
S113454050100020E35A0000836913F8023C022B48
S11345500FD14FF0E023D3F8882D42F47002C3F852
S1134560882DD3F8342F42F04042C3F8342FFBF7A0
S1134570EFBD40F27731014800F0C4BBE35A0000BC
S113458010B54FF0807440E90224184A4FF01234F9
S113459040F80C2C4FF003324FF0023C40E9052464
S11345A04FF0013240F8203C40E9072C4FF0103323
S11345B04FF011324FF0093440E90A324FF008331A
S11345C04FF0073C40E90C344FF006334FF005320E
S11345D040E90E3C4FF0043340E910326FF002031F
S11345E040F8443C40F8481D10BD00BFCD440000D5
S11345F04FF0E02310B50024D3F8202D42F47F02BD
S1134600C3F8202DD3F8202D42F07F42C3F8202D8B
S113461000F0D8F8044B1C60FBF7BAFDFFF7E2FB8F
S1134620FFF754FF204610BD5010002010B50F4B6B
S11346301A461B688342FBD354681119884201BF90
S11346404168104609195160446801198B4207D129
S1134650074909688B421FBF59681B6809194160E3
S11346609042036018BF106010BD00BFB02000204E
S1134670A020002038B5044690B31A4D50F8042CFD
S11346802B681A4204D140F22F11174800F03AFB6C
S113469054F8083C23B14FF49871134800F032FBEE
S11346A054F8043C2A6813421AD054F8081CB9B9C7
S11346B023EA020344F8043CFFF728FA0B4A54F8AF
S11346C0043C1168A4F108000B441360FFF7AEFF2B
S11346D0074A136801331360BDE83840FFF7D0BAC6
S11346E038BD00BFA4200020435B0000A8200020A8
S11346F0AC20002013B5044600F07FFC114B124A95
S11347001B6812689C4228BF1C46104B811A1B6808
S11347106343994238BFD2184FF0000334BF111AD3
S11347200121CDE900330A4A0A4800F042FC30B1C5
S1134730B421094802B0BDE8104000F0E3BA02B069
S113474010BD00BFC4200020BC200020C0200020D9
S11347505D470000C8200020915B00002DE9F04176
S113476000F04BFC064600F073FE134B05461C7824
S113477074B9124FDFF848803B68D8F80020F31A68
S113478093420AD80CB100F046FE0120FFF7B2FFB5
S11347902846BDE8F04100F066BEFFF7DDF9D8F821
S11347A0002054EA00033B6818BF0124134408BFE7
S11347B000243B60E0E700BFA6210020BC200020CD
S11347C0C02000200022124B10B5DA77FEF7E4FB7C
S11347D0B0F57A7F044603D245210E4800F092FAE0
S11347E04FF47A7004F2E734B4FBF0F40A4B1C6023
S11347F04FF0FF33B3FBF4F4084B0A3C1C6000F0A9
S1134800FCFBBDE81040064B18600120FFF772BFA7
S113481000ED00E0915B0000C0200020C4200020D7
S1134820BC200020F8B5044601250E4E0E4F30463C
S11348303D70FEF735FB2046FFF75CFF204600F095
S113484019FE0A4B1C600024094B1C60FDF79EFFF7
S113485030463C70FEF724FB2846BDE8F840FFF7DD
S113486049BF00BFC8200020A6210020B820002096
S1134870E820002070B500F0C0FB144A1449136806
S11348800968C01AB0FBF1F404FB0133114D124E58
S113489013602B6830681A1982420AD22046FFF747
S11348A043F92868336804449C422C6007D30020F1
S11348B00AE0C01AFFF738F933682B60F7E7FFF70F
S11348C0ADFB003818BF012070BD00BFBC20002024
S11348D0C0200020E8200020B820002053B94AB9A5
S11348E0002908BF00281CBF4FF0FF314FF0FF30F4
S11348F000F082B9ADF1080C6DE904CE00F006F8C1
S1134900DDF804E0DDE9022304B070472DE9F04F3F
S1134910099D04460F46002B48D18A42944661D92A
S1134920B2FA82F343B1C3F120019F4002FA03FCBF
S11349309C4020FA01F10F434FEA1C411FFA8CFE00
S1134940220CB7FBF1F601FB167706FB0EF042EAE8
S11349500742904208D91CEB020206F1FF3702D24B
S1134960904200F237813E46121AA4B2B2FBF1F033
S113497001FB102200FB0EFE44EA0244A64508D9BE
S11349801CEB040400F1FF3202D2A64500F21C81A4
S1134990104640EA0640A4EB0E0400261DB1DC409C
S11349A00023C5E900433146BDE8F08F8B4209D9A5
S11349B0002D00F0FD800026C5E900013046314697
S11349C0BDE8F08FB3FA83F6002E4BD18B42C0F0D2
S11349D0F280824240F2EF803046002DE3D0C5E9F8
S11349E00047E0E702B9FFDEB2FA82F3002B40F0A1
S11349F09D80891A4FEA124E97B20126200CB1FB12
S1134A00FEF20EFB121140EA014107FB02F088425C
S1134A100FD91CEB010102F1FF382CBF4FF0010943
S1134A204FF00009884203D9B9F1000F00F0CF809C
S1134A304246091AA4B2B1FBFEF00EFB101100FBB2
S1134A4007F744EA0144A74208D91CEB040400F127
S1134A50FF3102D2A74200F2B4800846E41B40EAC8
S1134A6002409BE7C6F12007B34001FA06F422FA9C
S1134A7007FCF940B2404CEA030C20FA07F34FEA72
S1134A801C491C431FFA8CFE00FA06F3200CB1FBF0
S1134A90F9F809FB181140EA014108FB0EF08842BD
S1134AA00FD91CEB010108F1FF3A2CBF4FF0010BA9
S1134AB04FF0000B884203D9BBF1000F00F08D804A
S1134AC0D046091AA4B2B1FBF9F009FB101100FB9E
S1134AD00EFE44EA01418E4507D91CEB010100F1A9
S1134AE0FF3401D28E457FD8204640EA0840A1EB2E
S1134AF00E01A0FB029841454C46C64602D306D19E
S1134B004B4504D20138B9EB020468EB0C0E002DBE
S1134B1070D01A1B61EB0E0122FA06F301FA07F7B3
S1134B20F14000261F43C5E900713CE702FA03FC8B
S1134B30C3F1200001FA03F221FA00F64FEA1C4EF9
S1134B4024FA00F11FFA8CF79C401143B6FBFEF0E7
S1134B500A0C0EFB106642EA064200FB07F6964278
S1134B600ED91CEB020200F1FF382CBF4FF00109F3
S1134B704FF00009964202D9B9F1000F31D04046F6
S1134B80921B89B2B2FBFEF60EFB162241EA0241E9
S1134B9006FB07F28A4207D91CEB010106F1FF3834
S1134BA001D28A4223D84646891A46EA004625E7B6
S1134BB02E462846F7E6841A61EB030301201F46BC
S1134BC00BE76444023849E764440238E1E6023AF8
S1134BD061442EE7023E6244C6E6A8F1020861443D
S1134BE06FE702386244CBE7023861447DE7023E56
S1134BF06144D9E72E46D6E6704700BF08B5074B97
S1134C00044613B1002100E000BF054B1868836A15
S1134C1003B19847204600F029F800BF00000000C7
S1134C20F05B000070B50D4D00260D4C641BA41004
S1134C30A64209D10B4D00260B4C00F03DFC641B31
S1134C40A410A64205D170BD55F8043B013698471F
S1134C50EEE755F8043B01369847F2E7EC100020E4
S1134C60EC100020EC100020F0100020FEE700BF44
S1134C7000F009B808B500F0FAF9FFF7F9FF00F001
S1134C8003FA002008BD704708B50120FBF7FEFBBE
S1134C902020FBF7FBFBBDE808404020FBF7F6BBF8
S1134CA0FEF776BB08B5FBF7BDFFFBF7D3FBFBF7BD
S1134CB0E1FBBDE80840FBF7E3BB08B500F008F8EA
S1134CC0FEF7B4F8BDE80840FDF794BB70477047A1
S1134CD00F20704708B501213A20FCF7EFF9FFF7E0
S1134CE0D3FFBDE80840FBF70BBC01213A20FCF7D9
S1134CF0E5B9FEE7002070474FF4004070474FF4D9
S1134D007A707047FEE7002303607047436803B17D
S1134D10184722207047436903B11847FF207047A2
S1134D2038B50D680C462B78022B0CD0697928799C
S1134D30FBF728FDB0FA80F0400928702046BDE852
S1134D403840FBF7E5BA38BD03681878704710B5EA
S1134D5004682378022B15D061792079FBF712FDC2
S1134D60A279012A15D1003818BF01204FF6E0714D
S1134D70638840EA430363F03F039BB28B4202D152
S1134D802270638010BD4FF6DF729342F9D1002286
S1134D90F6E7002AF6D1B0FA80F040092070F1E776
S1134DA003681A78022A03D100225A80FBF714BD43
S1134DB0704713B504682378022B10D0A379022B13
S1134DC00BD100216079FBF745FF0023627920793C
S1134DD01146CDE90033FCF763FF0223237002B0D0
S1134DE010BDD0E90003184703690068184710B5DF
S1134DF0044601213A20FCF761F9A3782078B3FA3C
S1134E0083F3042261785B09FCF7C4FF002010BD22
S1134E10034659789B7800780BB9FBF713BDFBF771
S1134E203BBD034659789B7800780BB9FBF734BD3A
S1134E30FBF708BD08B5FBF781FCBDE8084000217D
S1134E40FCF716B90029CCBF01210021FCF710B9E9
S1134E5002214FF42070FCF755BC10B5FBF75CFC45
S1134E600446FBF759FFC0F102012046FFF7EAFFB1
S1134E7001210020FCF70CFEFCF7D6FCBDE8104035
S1134E80FCF710BAEFF3108072B6704700B962B63F
S1134E907047EFF31180302383F31188704780F358
S1134EA01188704770477047FCF728BDFCF7E8BCD1
S1134EB07047704770B5054614460E46FFF7E2FF8B
S1134EC0296881EA040202EA06044C402C60BDE829
S1134ED07040FFF7DBBF022A10B54FF0000405D97C
S1134EE0033A022A0CD90360047110BD11F40002C4
S1134EF018BF4FF07F4221F07F4313430C0EF2E7BB
S1134F0021F0FF03CCB2EEE708B5D1F88020D1F848
S1134F10841002F00702FFF7DEFF08BD4FF0B04334
S1134F205A6812B19A6A002AFAD17047036BDA07F9
S1134F3002D503695B06F9D4704783695A06FCD528
S1134F40C16383699B06FCD5406AC0B27047FDF714
S1134F50C9BAFDF7F1BA07B5FFF794FF0190FDF761
S1134F604DFB019803B05DF804EBFFF78FBFFFF72B
S1134F709BBF4FF4C870FDF7F9BBF0B587B0154679
S1134F801E460446059190B10027C761FDF788FFCE
S1134F90BDF834303A4602939DF830302046CDE9CE
S1134FA0006305992B46FDF7F1FE07B0F0BD222002
S1134FB0FBE7F0B51F46002387B00D4616460446AE
S1134FC08DF81730A8B1C3610DF11701FDF790FFFB
S1134FD09DF817207AB9BDF83430294602939DF81C
S1134FE030302046CDE900733346FDF7CFFE07B0DD
S1134FF0F0BD2220FBE70320F9E738B5FFF749FFAE
S1135000054600F008F804462846FFF748FF204606
S113501038BD002070474FF0B0439A6A1207FCD4A1
S1135020186A704782074FF0B04200F0010391699B
S113503048BF43F040030B43936170474FF0B043C4
S113504001285B6904D0022805D1C3F3801070479E
S113505003F0010070470020704708B53E20FCF7BC
S113506057F80346FFF7D5FF23FA00F008BD08B54B
S1135070FBF7BAF9FFF716FEFFF71FFEFFF726FE50
S1135080BDE80840FFF723BEFFF70ABE10B504468B
S1135090FFF7FFFE08226369DA60FFF700FF0020D4
S11350A010BD73B50D460646FFF7F3FE044671695D
S11350B06846FFF729FF009B20462B80FFF7EFFE91
S11350C0002002B070BD10B50446FFF7E2FE4FF4B5
S11350D08072636903F500539A6294F92030002BBF
S11350E011DB012203F01F015B099B0003F1604304
S11350F08A4003F56143C3F88021C3F88020BFF3DD
S11351004F8FBFF36F8FFFF7CAFE002010BD00233F
S113511073B5ADF80630FBF70FF90446D0E909562C
S11351200DF10601FFF7BDFFE06A48B91DB1314634
S11351300DF10600A8472046FFF7A8FF02B070BD96
S113514094F83130BDF8061020F8131094F830208C
S1135150013A934203D0013384F83130EBE70DB1C7
S11351603146A8472046FFF7AEFF204694F82310A7
S1135170FEF7A0F8002384F8313084F82230DDE70C
S113518008B54FF0E0231B69FEF76AFF012803D03E
S1135190BDE8084000F04AB908BD4FF0FF3200F105
S11351A00803C0E9022343600361002303607047DE
S11351B000230361704743689A684B608A609A6869
S11351C0516099600368086101330360704730B52A
S11351D00C68631C0AD103695A684A6091608B6049
S11351E05960036808610133036030BD00F10802AF
S11351F0134652681568A542FAD9EDE70369D0E968
S113520001128A6051605968814208BF5A600022C5
S113521002611A68013A1A601868704710B50446AA
S1135220FFF76CF9A46BFFF777F9B4FA84F040093F
S113523010BDF8B51546026C0446866B52B9076872
S113524047BB8068FEF71CFF0546A7600136284669
S1135250A663F8BD65B9406800F019F96368226C6B
S11352601344A26863609342F0D323686360EDE75C
S1135270C06800F00CF9226CE36851429B1A226862
S1135280E36093423EBFA3685B18E360022D01D143
S113529016B1013E0025D9E73546D7E703461A6C17
S11352A0084610B46AB1DC68996814448C4228BF7B
S11352B01968DC6028BFD960D9685DF8044B00F038
S11352C0E6B85DF8044B704770B50446FFF716F96D
S11352D094F8455004F124066DB2002D14DCFF232C
S11352E084F84530FFF718F9FFF708F994F84450AB
S11352F004F110066DB2002D12DCFF2384F8443053
S1135300BDE87040FFF708B9636A002BE7D0304668
S1135310FEF7F6FD08B1FEF77BFE013D6DB2DCE75A
S11353202369002BE9D03046FEF7EAFD08B1FEF709
S11353306FFE013D6DB2DEE770B504460D461646BC
S1135340FFF7DCF894F84430FF2B04BF002384F803
S1135350443094F84530FF2B04BF002384F84530D3
S1135360FFF7DAF8A36B2BB93246294604F124007F
S1135370FEF7A6FD2046BDE87040FFF7A5BF2DE966
S1135380F0470D46DDE90984960032460746A5211B
S1135390206B994600F088F8226B043E164426F0F0
S11353A00706ADB36B1E04F13402093513F8010F7F
S11353B002F8010B08B1AB42F8D1002384F83D3068
S11353C0089D4FF0000A372D28BF3725201DE562C0
S11353D0A564C4F84CA0FFF7EBFEC5F1380504F151
S11353E01800FFF7E5FE4B463A463046216B246130
S11353F0A5616462C4F850A084F854A0FFF7C0F813
S11354002060B8F1000F01D0C8F80040BDE8F08773
S113541084F83450D4E74FF0E0234FF08052C3F8BF
S1135420042DBFF34F8FBFF36F8F704710B500F09B
S11354300FF80446FEF790FB28B14FF0E0234FF03D
S11354408052C3F8042D2046BDE8104000F00BB88C
S1135450EFF311804FF0300181F31188BFF34F8FC8
S1135460BFF36F8F704780F31188BFF34F8FBFF383
S11354706F8F704770470120704708B5FFF7FBFF37
S113548020B1FEF7CBFD003818BF012008BD0A4447
S1135490431E914200D1704710B511F8014B91425F
S11354A003F8014FF9D110BD02440346934200D1E1
S11354B0704703F8011BF9E7F8B500BFF8BC08BC56
S11354C09E467047F8B500BFF8BC08BC9E467047BE
S11354D001B40248844601BC604700BFC5100020E7
S11354E0B4100020D90700004F4D0000A14D00006A
S11354F0B34D0000494D0000BE100020EF4D0000E8
S1135500114E0000234E0000ED0800003D0900008C
S11355102E2E2F6765636B6F5F73646B5F342E325F
S11355202E322F68617264776172652F626F6172C7
S1135530642F7372632F736C5F626F6172645F6355
S11355406F6E74726F6C5F6770696F2E630000001A
S1135550050000000000000040420F0005010000AB
S11355600000000000000000000000002F557365DB
S113557072732F74696D732F53696D706C696369ED
S1135580747953747564696F2F76355F776F726BB6
S113559073706163652F73696D706C655F62757498
S11355A0746F6E5F7472792F6765636B6F5F73647A
S11355B06B5F342E322E322F706C6174666F726D95
S11355C02F656D6C69622F696E632F656D5F6770FF
S11355D0696F2E68002E2E2F6765636B6F5F73648F
S11355E06B5F342E322E322F706C6174666F726D65
S11355F02F6472697665722F627574746F6E2F737F
S113560072632F736C5F73696D706C655F62757420
S1135610746F6E2E63002E2E2F6765636B6F5F733E
S1135620646B5F342E322E322F706C6174666F722D
S11356306D2F6472697665722F70776D2F73726344
S11356402F736C5F70776D2E63002F5573657273C3
S11356502F74696D732F53696D706C696369747904
S113566053747564696F2F76355F776F726B7370DF
S11356706163652F73696D706C655F627574746FB7
S11356806E5F7472792F6765636B6F5F73646B5FB2
S1135690342E322E322F706C6174666F726D2F65EA
S11356A06D6C69622F696E632F656D5F74696D65DA
S11356B0722E68002E2E2F6765636B6F5F73646BA9
S11356C05F342E322E322F706C6174666F726D2FC0
S11356D0656D6C69622F7372632F656D5F636D75A1
S11356E02E63002E2E2F6765636B6F5F73646B5F91
S11356F0342E322E322F706C6174666F726D2F658A
S11357006D6C69622F7372632F656D5F636F726571
S11357102E63002E2E2F6765636B6F5F73646B5F60
S1135720342E322E322F706C6174666F726D2F6559
S11357306D6C69622F7372632F656D5F656D752E75
S113574063002F55736572732F74696D732F5369DA
S11357506D706C696369747953747564696F2F76BD
S1135760355F776F726B73706163652F73696D70EA
S11357706C655F627574746F6E5F7472792F6765A0
S1135780636B6F5F73646B5F342E322E322F706CD9
S11357906174666F726D2F656D6C69622F696E63DB
S11357A02F656D5F6275732E68002E2E2F676563FB
S11357B06B6F5F73646B5F342E322E322F706C61AB
S11357C074666F726D2F656D6C69622F7372632FCF
S11357D0656D5F6770696F2E63002E2E2F6765639A
S11357E06B6F5F73646B5F342E322E322F706C617B
S11357F074666F726D2F656D6C69622F7372632F9F
S1135800656D5F727463632E63002E2E2F6765636C
S11358106B6F5F73646B5F342E322E322F706C614A
S113582074666F726D2F656D6C69622F7372632F6E
S1135830656D5F74696D65722E63002E2E2F67652A
S1135840636B6F5F73646B5F342E322E322F706C18
S11358506174666F726D2F656D6C69622F7372630C
S11358602F656D5F75736172742E6300010304010B
S1135870010109030B0000000B00000002000000FE
S11358800000202000000000030000008C8C3C007D
S113589000000000000000000000000001260000DD
S11358A004000000000000000001000000000000EF
S11358B02E2E2F6765636B6F5F73646B5F342E32BC
S11358C02E322F706C6174666F726D2F73657276F1
S11358D06963652F706F7765725F6D616E6167656F
S11358E0722F7372632F736C5F706F7765725F6D65
S11358F0616E616765722E6300010410402E2E2FC5
S11359006765636B6F5F73646B5F342E322E322F67
S1135910706C6174666F726D2F73657276696365FE
S11359202F706F7765725F6D616E616765722F733B
S113593072632F736C5F706F7765725F6D616E61F8
S11359406765725F68616C5F73322E63002E2E2F61
S11359506765636B6F5F73646B5F342E322E322F17
S1135960706C6174666F726D2F73657276696365AE
S11359702F736C65657074696D65722F7372632F14
S1135980736C5F736C65657074696D65722E63000A
S113599001000000050002000003002E2E2F6765A1
S11359A0636B6F5F73646B5F342E322E322F706CB7
S11359B06174666F726D2F736572766963652F7596
S11359C064656C61792F7372632F736C5F756465A2
S11359D06C61792E63002E2E2F6765636B6F5F7386
S11359E0646B5F342E322E322F7574696C2F746899
S11359F06972645F70617274792F6672656572741E
S1135A006F732F636D7369732F536F757263652F93
S1135A10636D7369735F6F73322E63002E2E2F676D
S1135A2065636B6F5F73646B5F342E322E322F7538
S1135A3074696C2F74686972645F70617274792F11
S1135A406672656572746F732F6B65726E656C2F09
S1135A5071756575652E63002E2E2F6765636B6FF8
S1135A605F73646B5F342E322E322F7574696C2F22
S1135A7074686972645F70617274792F66726565A7
S1135A8072746F732F6B65726E656C2F7461736BB8
S1135A90732E630049444C4500546D725100546D9B
S1135AA07220537663002E2E2F6765636B6F5F73CE
S1135AB0646B5F342E322E322F7574696C2F7468C8
S1135AC06972645F70617274792F6672656572744D
S1135AD06F732F6B65726E656C2F74696D6572736D
S1135AE02E63002E2E2F6765636B6F5F73646B5F8D
S1135AF0342E322E322F7574696C2F746869726477
S1135B005F70617274792F6672656572746F732F3A
S1135B106B65726E656C2F706F727461626C652F49
S1135B204743432F41524D5F434D33335F4E545AE5
S1135B302F6E6F6E5F7365637572652F706F72740D
S1135B402E63002E2E2F6765636B6F5F73646B5F2C
S1135B50342E322E322F7574696C2F746869726416
S1135B605F70617274792F6672656572746F732FDA
S1135B706B65726E656C2F706F727461626C652FE9
S1135B804D656D4D616E672F686561705F342E637E
S1135B90002E2E2F6765636B6F5F73646B5F342E0B
S1135BA0322E322F7574696C2F74686972645F7059
S1135BB0617274792F6672656572746F732F6B6589
S1135BC0726E656C2F706F727461626C652F5369AD
S1135BD06C69636F6E4C6162732F7469636B5F7081
S1135BE06F7765725F6D616E616765722E63000029
S1075BF05410002029
S10B5BF4A0A6FF7F01000000E0
S10F5BFC085C0000001000203D000000C8
S1135C0800000000040000000C0000000000000078
S1135C18000000000040005A000000002A000000B4
S1135C283000000000000000000000000000000038
S1135C38000000000080045000010200C0EA2101B5
S1135C48C0EA210100F0490200800000370000008A
S1135C58AAAAAAAA00000000000000000000000090
S1135C680000000000000000000000000000000028
S1135C780000000000000000000000000000000018
S1135C880000000000000000000000000000000008
S1135C9800000000000000000000000000000000F8
S1135CA800000000000000000000000000000000E8
S1135CB8000000000000000001010200FFFF0100D5
S1135CC80101010082B030BF074BD3F8F030DB0785
S1135CD804D500230193019B052B01DD02B0704715
